{"abi":[{"type":"function","name":"addPerson","inputs":[{"name":"_name","type":"string","internalType":"string"},{"name":"_num","type":"uint256","internalType":"uint256"}],"outputs":[],"stateMutability":"nonpayable"},{"type":"function","name":"getNum","inputs":[],"outputs":[{"name":"","type":"uint256","internalType":"uint256"}],"stateMutability":"view"},{"type":"function","name":"listOfPeople","inputs":[{"name":"","type":"uint256","internalType":"uint256"}],"outputs":[{"name":"num","type":"uint256","internalType":"uint256"},{"name":"name","type":"string","internalType":"string"}],"stateMutability":"view"},{"type":"function","name":"myNum","inputs":[],"outputs":[{"name":"","type":"uint256","internalType":"uint256"}],"stateMutability":"view"},{"type":"function","name":"nameToNum","inputs":[{"name":"","type":"string","internalType":"string"}],"outputs":[{"name":"","type":"uint256","internalType":"uint256"}],"stateMutability":"view"},{"type":"function","name":"setNum","inputs":[{"name":"_num","type":"uint256","internalType":"uint256"}],"outputs":[],"stateMutability":"nonpayable"}],"bytecode":{"object":"0x6080604052348015600e575f5ffd5b506109098061001c5f395ff3fe608060405234801561000f575f5ffd5b5060043610610060575f3560e01c80632ebce6311461006457806367e0badb146100955780636f760f41146100b357806392fa9da3146100cf578063cd16ecbf146100ff578063d4da005a1461011b575b5f5ffd5b61007e600480360381019061007991906102f9565b610139565b60405161008c9291906103a3565b60405180910390f35b61009d6101ee565b6040516100aa91906103d1565b60405180910390f35b6100cd60048036038101906100c89190610516565b6101f6565b005b6100e960048036038101906100e49190610570565b61027a565b6040516100f691906103d1565b60405180910390f35b610119600480360381019061011491906102f9565b6102a7565b005b6101236102b0565b60405161013091906103d1565b60405180910390f35b60028181548110610148575f80fd5b905f5260205f2090600202015f91509050805f01549080600101805461016d906105e4565b80601f0160208091040260200160405190810160405280929190818152602001828054610199906105e4565b80156101e45780601f106101bb576101008083540402835291602001916101e4565b820191905f5260205f20905b8154815290600101906020018083116101c757829003601f168201915b5050505050905082565b5f5f54905090565b6002604051806040016040528083815260200184815250908060018154018082558091505060019003905f5260205f2090600202015f909190919091505f820151815f0155602082015181600101908161025091906107b4565b5050508060038360405161026491906108bd565b9081526020016040518091039020819055505050565b6003818051602081018201805184825260208301602085012081835280955050505050505f915090505481565b805f8190555050565b5f5481565b5f604051905090565b5f5ffd5b5f5ffd5b5f819050919050565b6102d8816102c6565b81146102e2575f5ffd5b50565b5f813590506102f3816102cf565b92915050565b5f6020828403121561030e5761030d6102be565b5b5f61031b848285016102e5565b91505092915050565b61032d816102c6565b82525050565b5f81519050919050565b5f82825260208201905092915050565b8281835e5f83830152505050565b5f601f19601f8301169050919050565b5f61037582610333565b61037f818561033d565b935061038f81856020860161034d565b6103988161035b565b840191505092915050565b5f6040820190506103b65f830185610324565b81810360208301526103c8818461036b565b90509392505050565b5f6020820190506103e45f830184610324565b92915050565b5f5ffd5b5f5ffd5b7f4e487b71000000000000000000000000000000000000000000000000000000005f52604160045260245ffd5b6104288261035b565b810181811067ffffffffffffffff82111715610447576104466103f2565b5b80604052505050565b5f6104596102b5565b9050610465828261041f565b919050565b5f67ffffffffffffffff821115610484576104836103f2565b5b61048d8261035b565b9050602081019050919050565b828183375f83830152505050565b5f6104ba6104b58461046a565b610450565b9050828152602081018484840111156104d6576104d56103ee565b5b6104e184828561049a565b509392505050565b5f82601f8301126104fd576104fc6103ea565b5b813561050d8482602086016104a8565b91505092915050565b5f5f6040838503121561052c5761052b6102be565b5b5f83013567ffffffffffffffff811115610549576105486102c2565b5b610555858286016104e9565b9250506020610566858286016102e5565b9150509250929050565b5f60208284031215610585576105846102be565b5b5f82013567ffffffffffffffff8111156105a2576105a16102c2565b5b6105ae848285016104e9565b91505092915050565b7f4e487b71000000000000000000000000000000000000000000000000000000005f52602260045260245ffd5b5f60028204905060018216806105fb57607f821691505b60208210810361060e5761060d6105b7565b5b50919050565b5f819050815f5260205f209050919050565b5f6020601f8301049050919050565b5f82821b905092915050565b5f600883026106707fffffffffffffffffffffffffffffffffffffffffffffffffffffffffffffffff82610635565b61067a8683610635565b95508019841693508086168417925050509392505050565b5f819050919050565b5f6106b56106b06106ab846102c6565b610692565b6102c6565b9050919050565b5f819050919050565b6106ce8361069b565b6106e26106da826106bc565b848454610641565b825550505050565b5f5f905090565b6106f96106ea565b6107048184846106c5565b505050565b5b818110156107275761071c5f826106f1565b60018101905061070a565b5050565b601f82111561076c5761073d81610614565b61074684610626565b81016020851015610755578190505b61076961076185610626565b830182610709565b50505b505050565b5f82821c905092915050565b5f61078c5f1984600802610771565b1980831691505092915050565b5f6107a4838361077d565b9150826002028217905092915050565b6107bd82610333565b67ffffffffffffffff8111156107d6576107d56103f2565b5b6107e082546105e4565b6107eb82828561072b565b5f60209050601f83116001811461081c575f841561080a578287015190505b6108148582610799565b86555061087b565b601f19841661082a86610614565b5f5b828110156108515784890151825560018201915060208501945060208101905061082c565b8683101561086e578489015161086a601f89168261077d565b8355505b6001600288020188555050505b505050505050565b5f81905092915050565b5f61089782610333565b6108a18185610883565b93506108b181856020860161034d565b80840191505092915050565b5f6108c8828461088d565b91508190509291505056fea2646970667358221220da8ac5c842ac6782f04eeffa747387adb1216ac39393d72b1ad0e4d6d574401764736f6c634300081c0033","linkReferences":{}},"methodIdentifiers":{"addPerson(string,uint256)":"6f760f41","getNum()":"67e0badb","listOfPeople(uint256)":"2ebce631","myNum()":"d4da005a","nameToNum(string)":"92fa9da3","setNum(uint256)":"cd16ecbf"},"id":0}